:100000000C94DD000C9405010C9405010C94C005C2
:100010000C94C0050C94C0050C9405010C940501CA
:100020000C9405010C9405010C9405010C94050138
:100030000C9405010C9405010C9405010C94050128
:100040000C9476050C9405010C94F8080C94D208D5
:100050000C9405010C9405010C9405010C94050108
:100060000C9405010C9405013107630763076307CE
:1000700063074C0763076307F906630763076F07A6
:1000800063076307400710076307630759070907FA
:100090008D0A910A980A870A980A890A950AA50A78
:1000A000980A980A980A980A980A980A980A980A40
:1000B0009C0A980A980A980A980A980A51756575D0
:1000C000652069732066756C6C00756E6465666981
:1000D0006E6520636F6D6D616E6400444600444F31
:1000E0000044696500574400574400444F004446AB
:1000F00000444F00444600464F00464600414F0032
:1001000041460045580045480000000000240027F3
:10011000002A00000000080002010000030407009C
:1001200000000000000000535500322E506C656145
:10013000736520696E73657274207468652053441A
:1001400020636172642100312E506C6561736520FB
:100150007265636865636B2074686520636F6E6E9B
:10016000656374696F6E2100556E61626C65207401
:100170006F20626567696E3A000000000025002864
:10018000002B0000000000230026002900040404C6
:100190000404040404020202020202030303030330
:1001A000030102040810204080010204081020010D
:1001B0000204081020000110130D11241FBECFEF00
:1001C000D8E0DEBFCDBF11E0A0E0B1E0E8E2F6E2AA
:1001D00002C005900D92AA3BB107D9F723E0AAEB24
:1001E000B1E001C01D92A93DB207E1F710E0CCEDEE
:1001F000D0E004C02197FE010E94BB11CB3DD10786
:10020000C9F70E94430D0C9407130C940000209131
:100210001F02309120022817390771F490911D02B6
:1002200080911E02981741F0E0911D02F0E0EC521F
:10023000FE4F808190E008958FEF9FEF089508951D
:100240001F93CF93DF93DC015C962D913C915D97DA
:100250002115310539F481E090E013969C938E933B
:1002600012973DC05196ED91FC91529750969C91FA
:100270005097892F80951FB75E964C915E9741FBF2
:10028000772770F941FD6095F8944081772311F04C
:10029000492B01C048234083E9012197F1F748E049
:1002A000508160FF02C0592B01C058235083E901DF
:1002B0002197F1F76695415099F7772321F09081C6
:1002C0008923808303C08081982B90831FBF5C9615
:1002D0008D919C915D970197F1F721E030E0C90184
:1002E000DF91CF911F91089520911F02309120023C
:1002F0002817390771F480911E0220911D0290E0A9
:10030000805C9F4F821B910960E470E00E94A711FE
:10031000089580E090E0089520911F02309120021E
:1003200028173907B9F490911D0280911E02981781
:1003300089F0E0911D02F0E0EC52FE4F80812091A7
:100340001D0230E02F5F3F4F2F73332720931D0294
:1003500090E008958FEF9FEF0895089580E090E07A
:1003600008950F931F93FC0102851385248535851D
:10037000401B510B620B730B77FD02C0808901C0DB
:1003800080E01F910F910895FC01428353836483A1
:10039000758386819781A085B185480F591F6A1F93
:1003A0007B1F42875387648775870895AF92BF92FA
:1003B000CF92DF92EF92FF920F931F93CF93DF9331
:1003C00086E00E942A095C0189E00E942A096C01EA
:1003D0008BE00E942A097C018DE00E942A098C0191
:1003E00082E00E942A09EC0181E0A816B10479F4A8
:1003F0008091D2019091D301019721F486E091E0A0
:100400000E943C0B1092D3011092D20112C0AB2873
:1004100081F48091D2019091D301892B21F483E062
:1004200091E00E943C0B81E090E09093D301809397
:10043000D20181E0C816D10479F48091D001909165
:10044000D101019721F480E091E00E943C0B1092D1
:10045000D1011092D00112C0CD2881F48091D00139
:100460009091D101892B21F48DEF90E00E943C0BFB
:1004700081E090E09093D1018093D001E114F104E8
:1004800079F48091CE019091CF01019721F48AEF08
:1004900090E00E943C0B1092CF011092CE0113C04D
:1004A000EA94EF2881F48091CE019091CF01892BBD
:1004B00021F487EF90E00E943C0B81E090E0909364
:1004C000CF018093CE010130110579F48091CC01E8
:1004D0009091CD01019721F484EF90E00E943C0BB4
:1004E0001092CD011092CC0112C0012B81F48091A9
:1004F000CC019091CD01892B21F481EF90E00E94F5
:100500003C0B81E090E09093CD018093CC01C13011
:10051000D10579F48091020190910301019721F4B2
:100520008EEE90E00E943C0B1092030110920201AB
:1005300012C0CD2B81F48091020190910301892B8F
:1005400021F48BEE90E00E943C0B81E090E09093D0
:10055000030180930201DF91CF911F910F91FF90D2
:10056000EF90DF90CF90BF90AF900895BC0183E0F3
:100570000C94EC0ACF93DF93C091CA01D091CB01C8
:10058000C130D10581F488EE90E00E943C0B81E0FF
:1005900090E00E94B6021092CB011092CA01D09353
:1005A000C901C093C8018091C8019091C901E0912F
:1005B000C601F091C7010197D9F43097C9F4209191
:1005C000C4013091C501C9016EE170E00E94A7111C
:1005D000892B71F4215031092539310548F485EE14
:1005E00090E00E943C0B8091C4019091C5011BC01A
:1005F000319749F41092C5011092C4011092C701BD
:100600001092C60115C08091C4019091C501863930
:10061000910549F481EE90E00E943C0B1092C501D7
:100620001092C40105C001969093C5018093C40146
:10063000DF91CF9108950F931F93CF93DF93809114
:10064000C2019091C301019709F076C01092C301D5
:100650001092C201809123028C3409F066C080910F
:100660002402863429F0809124028335E1F51DC0EF
:1006700010922202109221021092C1011092C00128
:1006800080E190E09093010180930001C0E0D0E010
:1006900040E050E0BA01CE010E948F0C0E94CF0BC7
:1006A0002196C031D105A1F7DECF81E090E0909393
:1006B0002202809321021092C1011092C00185E1B3
:1006C00090E09093010180930001C0E0D0E040E011
:1006D00050E0BA01CE010E948F0C0E94CF0B2196F0
:1006E000C031D105A1F780912402843419F484E04B
:1006F00090E004C0873589F482E090E09093220274
:10070000809321021092C1011092C00180E190E01B
:10071000909301018093000108C0833431F485E097
:1007200090E0909322028093210289E1E3E2F2E0DB
:10073000DF011D928A95E9F78091210290912202B2
:100740008230910579F4C0E0D0E040E050E0BA0199
:10075000CE010E948F0C0E94CF0B2196C031D10593
:10076000A1F7ADC08430910509F055C064E170E097
:1007700080E090E00E94BF09C091C001D091C1010A
:10078000C031D105ACF400E010E045E055E065E093
:1007900070E0C8010E948F0C0E94CF0B0F5F1F4FAB
:1007A0000031110591F748EC58EC68EC70E063C03B
:1007B000C031D10509F083C0009100011091010101
:1007C00010161106E4F4C0E0D0E045E055E065E025
:1007D00070E0CE010E948F0C0E94CF0B2196C03199
:1007E000D10599F7C8010197909301018093000109
:1007F00048EC58EC68EC70E00E948F0C5AC0012B5A
:1008000009F05DC01092C1011092C001D0930101A6
:10081000C093000154C08130910501F5C091C00121
:10082000D091C101C233D1052CF440E058EC60E016
:1008300070E021C0E29709F042C01092C10110920D
:10084000C00185E190E0909301018093000182E076
:1008500090E0909322028093210231C00097B1F47E
:10086000C091C001D091C101C233D1051CF748EC41
:1008700050E060E070E0CE010E948F0C0E94CF0B30
:100880002196D093C101C093C00119C00597B9F456
:10089000C0E0D0E08091710390917203C817D9072E
:1008A00040F440E050E0BA01CE010E948F0C219646
:1008B000F1CFDF91CF911F910F910C94CF0BDF916E
:1008C000CF911F910F910895CF93DF93CDB7DEB7EE
:1008D00069970FB6F894DEBF0FBECDBF83E792E0F5
:1008E0000E94E807181619060CF0A3C083E792E0EF
:1008F0000E94C607882309F49CC0823039F481E045
:1009000090E09093BF018093BE0193C02091BC0101
:100910003091BD01833021F0253131050CF463C0E5
:1009200030935402209353028091CF039091D003CF
:10093000893091050CF046C029E1ECE3F2E0DE01DC
:10094000119601900D922A95E1F72091CD033091F7
:10095000CE038217930721F4880F991F0E945D0B25
:10096000A091CB03B091CC036091D3037091D403D9
:10097000AB014F5F5F4F5093D4034093D30389E1A2
:10098000869F9001879F300D1124A20FB31FFE0197
:10099000319601900D928A95E1F78091CD03909167
:1009A000CE034817590721F41092D4031092D303B1
:1009B0008091CF039091D00301969093D0038093C0
:1009C000CF0304C08CEB90E00E943C0B1092BB0163
:1009D0001092BA011092BD011092BC011092BF0199
:1009E0001092BE0126C04091BE015091BF0141301E
:1009F0005105F9F44091BA015091BB0142305105C3
:100A00005CF4FA01E45CFD4F80834F5F5F4F5093CD
:100A1000BB014093BA010DC02431310551F0F901F9
:100A2000E45CFD4F82832F5F3F4F3093BD012093E5
:100A3000BC0169960FB6F894DEBF0FBECDBFDF9143
:100A4000CF9108953FB7F8948091190290911A02BE
:100A5000A0911B02B0911C0226B5A89B05C02F3F98
:100A600019F00196A11DB11D3FBFBA2FA92F982FD4
:100A70008827820F911DA11DB11DBC01CD0142E04F
:100A8000660F771F881F991F4A95D1F708952FB7D2
:100A9000F89460911502709116028091170290915E
:100AA00018022FBF08950F931F93CF93DF93EC018C
:100AB000EE85FF85309709F009950E9447056E8302
:100AC0007F83888799870A811B812C813D81DC0186
:100AD000CB01800F911FA21FB31F8A879B87AC8712
:100AE000BD87DF91CF911F910F9108951F920F92B3
:100AF0000FB60F9211242F933F938F939F93AF9331
:100B0000BF938091150290911602A0911702B091A7
:100B100018023091140223E0230F2D3720F40196A0
:100B2000A11DB11D05C026E8230F0296A11DB11D10
:100B3000209314028093150290931602A09317023B
:100B4000B09318028091190290911A02A0911B0291
:100B5000B0911C020196A11DB11D809319029093C2
:100B60001A02A0931B02B0931C02BF91AF919F91F8
:100B70008F913F912F910F900FBE0F901F9018955E
:100B80001F920F920FB60F9211242F933F934F9302
:100B90005F936F937F938F939F93AF93BF93EF93E5
:100BA000FF93E0911F02F0912002309709F451C0A9
:100BB000968DA685B785858591FF04C09C91892374
:100BC00029F447C09C91892309F043C0A389B489C3
:100BD0009C918589809589238C9386899789019733
:100BE000F1F7608D718DA685B785558538E020E0D9
:100BF000CB010197F1F7822F90E095958795282FEB
:100C00004C91452309F02068315091F7868D81FD84
:100C1000209580911E0290E001968F739927309164
:100C20001D02381749F0A0911E02B0E0AC52BE4F31
:100C30002C9380931E0203C0868D8160868F828DE7
:100C4000938D0197F1F7A389B4899C918589892BAC
:100C50008C93FF91EF91BF91AF919F918F917F9175
:100C60006F915F914F913F912F910F900FBE0F9019
:100C70001F9018950F931F93CF93DF9300D000D050
:100C8000CDB7DEB78C018EE091E0F80191838083CF
:100C900081E0808B77876687128613861486158697
:100CA00029833A834B835C830E944705F80166835E
:100CB000778380879187128B018B29813A814B81C1
:100CC0005C812283338344835583DC01CB01820F13
:100CD000931FA41FB51F82879387A487B5870F90A2
:100CE0000F900F900F90DF91CF911F910F9108956A
:100CF000EC01009739F00E94BD0862E471E0CE017A
:100D00000E94BD080E94FA0CCF93DF93CDB7DEB7E7
:100D1000E2970FB6F894DEBF0FBECDBF2091CF0390
:100D20003091D0032115310509F4D9C0E091CB03EE
:100D3000F091CC03A091D103B091D203BD016F5FBC
:100D40007F4F7093D2036093D10389E18A9FA00102
:100D50008B9F500D1124E40FF51FDE0111960190B9
:100D60000D928A95E1F7215031093093D0032093F9
:100D7000CF038091CD039091CE036817790721F4BA
:100D80001092D2031092D1032115310569F0AC0104
:100D900097FF02C04D5F5F4F559547955595479515
:100DA000421753070CF094C089E1FE013196DE0131
:100DB0005A9601900D928A95E1F789A99AA98531F1
:100DC00091054CF4EAE1F0E0EC0FFD1FE80FF91F8C
:100DD00012820196F4CFEA8D8E2F90E0FC01E4544C
:100DE000F109E431F10508F06EC0EC5CFF4F0C94A2
:100DF000BB1181E090E09093C3018093C20189E12F
:100E0000FE017A96A3E2B2E001900D928A95E1F795
:100E100066C081E090E09093C7018093C6015FC0F7
:100E20008B8D833519F481E090E004C0833729F479
:100E300082E090E00E94B60252C0863419F484E049
:100E400090E0F8CF863619F483E090E0F3CF853553
:100E500009F045C081E090E09093CB018093CA01F6
:100E600016C08B8D8135D9F58091CC019091CD0143
:100E7000019719F48EED90E028C08BED90E025C02D
:100E80008B8D883411F461E003C08C3441F560E04F
:100E90008AE00E94530923C08B8D833501F5CE0172
:100EA0004C960E948111BC01772786E00E94EC0AD3
:100EB00016C08B8D813599F465E471E083E792E08B
:100EC0000E94BD080CC08AEC90E00E943C0B07C059
:100ED00097FD0196959587950E945D0B65CFE296EB
:100EE0000FB6F894DEBF0FBECDBFDF91CF9108954E
:100EF0000F931F93CF93DF93EC01E881F981028177
:100F000013810E944705AB01BC01CE01F801DF91BE
:100F1000CF911F910F910994CF92DF92EF92FF92A0
:100F20000F931F93CF93DF936C017A018B01C0E085
:100F3000D0E0CE15DF0589F0D8016D918D01D60185
:100F4000ED91FC910190F081E02DC6010995892B6E
:100F500011F47E0102C02196ECCFC701DF91CF9141
:100F60001F910F91FF90EF90DF90CF900895FC01BB
:100F7000538D448D252F30E0842F90E0821B930BFE
:100F8000541710F0CF96089501970895FC01918DA4
:100F9000828D981761F0828DDF01A80FB11D5D96DB
:100FA0008C91928D9F5F9F73928F90E008958FEF49
:100FB0009FEF0895FC01918D828D981731F0828DFD
:100FC000E80FF11D858D90E008958FEF9FEF089554
:100FD000FC01918D228D892F90E0805C9F4F821BB8
:100FE00091098F739927089583E792E00E94E8079B
:100FF00021E0892B09F420E0822F0895FC01848DE3
:10100000DF01A80FB11DA35ABF4F2C91848D90E032
:1010100001968F739927848FA689B7892C93A0890D
:10102000B1898C9180648C93938D848D981306C0C4
:101030000288F389E02D80818F7D80830895EF926F
:10104000FF920F931F93CF93DF93EC0181E0888F82
:101050009B8D8C8D981305C0E889F989808185FD69
:1010600024C0F62E0B8D10E00F5F1F4F0F7311275A
:10107000E02E8C8DE8120CC00FB607FCFACFE88981
:10108000F989808185FFF5CFCE010E94FE07F1CF5F
:101090008B8DFE01E80FF11DE35AFF4FF0820B8F9D
:1010A000EA89FB898081806207C0EE89FF896083BD
:1010B000E889F98980818064808381E090E0DF9114
:1010C000CF911F910F91FF90EF900895CF93DF93F1
:1010D000EC01888D8823C9F0EA89FB89808185FD30
:1010E00005C0A889B9898C9186FD0FC00FB607FC91
:1010F000F5CF808185FFF2CFA889B9898C9185FFD2
:10110000EDCFCE010E94FE07E7CFDF91CF9108958A
:1011100080E090E0892B29F00E94F40781110C9463
:1011200000000895833081F028F4813099F08230F6
:10113000A1F008958730A9F08830B9F08430D1F457
:10114000809180008F7D03C0809180008F77809395
:101150008000089584B58F7702C084B58F7D84BDEB
:1011600008958091B0008F7703C08091B0008F7D8B
:101170008093B00008950E9402136115710579F003
:10118000FB0101900020E9F73197AF01461B570B97
:10119000DC01ED91FC910280F381E02D099480E067
:1011A00090E008951F920F920FB60F9211242F9383
:1011B0003F934F935F936F937F938F939F93AF93DF
:1011C000BF93EF93FF9383E792E00E94FE07FF91A6
:1011D000EF91BF91AF919F918F917F916F915F91AF
:1011E0004F913F912F910F900FBE0F901F90189528
:1011F0001F920F920FB60F9211242F938F939F93EC
:10120000EF93FF93E0918302F09184028081E0915B
:101210008902F0918A0282FD12C0908180918C0235
:101220008F5F8F7320918D02821751F0E0918C02B5
:10123000F0E0ED58FD4F958F80938C0201C08081C6
:10124000FF91EF919F918F912F910F900FBE0F9073
:101250001F901895CF93DF93282F30E0F901ED5EB2
:10126000FE4F8491F901EF55FE4FD491F901E357F8
:10127000FE4FC491CC2391F081110E949208EC2F73
:10128000F0E0EE0FFF1FED57FE4FA591B491EC91EA
:10129000ED2381E090E021F480E002C080E090E066
:1012A000DF91CF9108951F93CF93DF93282F30E0E4
:1012B000F901ED5EFE4F8491F901EF55FE4FD49197
:1012C000F901E357FE4FC491CC23C9F0162F8111C9
:1012D0000E949208EC2FF0E0EE0FFF1FE758FE4F40
:1012E000A591B4918FB7F894111105C09C91ED2F81
:1012F000E095E92302C0EC91ED2BEC938FBFDF91D9
:10130000CF911F910895CF93DF9390E0FC01EF55AB
:10131000FE4F2491FC01E357FE4F8491882361F135
:1013200090E0880F991FFC01E75FFE4FC591D491B3
:10133000FC01E758FE4FA591B491611109C09FB718
:10134000F8948881209582238883EC912E230BC00A
:10135000623061F49FB7F8943881822F809583239F
:101360008883EC912E2B2C939FBF06C08FB7F894E7
:10137000E8812E2B28838FBFDF91CF9108958F9224
:101380009F92AF92BF92CF92DF92EF92FF926B014A
:101390007C010E9422054B015C01C114D104E104CF
:1013A000F104F1F00E942205DC01CB0188199909B2
:1013B000AA09BB09883E9340A105B10570F321E05D
:1013C000C21AD108E108F10888EE880E83E0981E61
:1013D000A11CB11CC114D104E104F10419F7DDCF43
:1013E000FF90EF90DF90CF90BF90AF909F908F9045
:1013F00008950F931F93CF93809184039091850359
:10140000DC01ED91FC910084F185E02D0995892B9B
:1014100009F4ACC060E070E0CB010E94BF09C0914C
:10142000A2038091840390918503DC01ED91FC91EE
:101430000284F385E02DC1110AC0099580938E03C3
:101440008E37D1F61092A8038091A2038BC0099524
:10145000EC2FF0E0EC57FC4F82878091A2038230A2
:10146000A1F08930C1F0813009F07CC090918F03E8
:101470009F3F09F477C01092A20381E08093A403F8
:101480001092A7031092A6039EC0909190039630ED
:1014900009F468C0F0CF809197038F3E61F7EFE8C1
:1014A000F3E020E030E08191280F311DB3E0E53911
:1014B000FB07C9F78091950390E0982F8827319515
:1014C0002195310940919603840F911D2817390702
:1014D00091F61092A203E0919103E093A50380910D
:1014E000930390E0982F882720919403820F911DF9
:1014F0009093A7038093A6034E2F50E0FA01FA972A
:10150000E631F105C8F4E85BFF4F0C94BB1185E0B0
:101510000DC081FF1CC084E009C081FF18C082E0BB
:1015200005C081FF14C083E001C086E08093A4035E
:1015300081E08093A8030BC081E08093A403109204
:10154000A7031092A6038093A8031092A903809189
:10155000A8038823E9F190919C03911139C010925E
:10156000A90336C08F5F8093A20346CF8091A90361
:101570008823E9F00E9447050091860310918703B4
:101580002091880330918903DC01CB01801B910BF2
:10159000A20BB30B00918A0310918B0320918C0353
:1015A00030918D0380179107A207B30718F480913B
:1015B000A8030EC01092A2031092A4031092A703D6
:1015C0001092A60381E08093A8031092A90380E003
:1015D000CF911F910F91089580939B0370939D036A
:1015E00060939E03E9E9F3E080E090E02191820FAF
:1015F000911D23E0EF39F207C9F791958195910983
:1016000090939F038093A00380919C03882361F0B3
:101610008091A903882371F060E070E0CB010E9403
:10162000BF090E94F909F4CF6AE070E080E090E021
:101630000E94BF098091840390918503DC01ED91A4
:10164000FC910280F381E02D4AE050E068E973E00C
:1016500009950E94470560938603709387038093E2
:1016600088039093890381E090919C03911101C0BC
:1016700080E08093A90308950F931F93CF93DF9386
:101680008C01C0E0D0E0F801EC0FFD1F64916623EF
:1016900071F0E0917302F09174020190F081E02DFD
:1016A00083E792E00995892B11F02196ECCFCE01CA
:1016B000DF91CF911F910F910895DF92EF92FF92EA
:1016C0000F931F93CF93DF93EC01181619061CF0AC
:1016D0006BE471E014C089E1282F2C9FC0012D9F7D
:1016E000900D11240E94D5118C01009731F07C01DE
:1016F00020E030E089E1D82E08C060E871E08091F8
:10170000C9039091CA030E9478068091CF039091FB
:10171000D003E091CB03F091CC032817390704F5EF
:101720004091D1035091D203C901840F951F60915C
:10173000CD037091CE030E94A711D89EA001D99E1F
:10174000500D1124E40FF51FD7018D2D01900D923E
:101750008A95E1F72F5F3F4F89E1E80EF11CD5CF65
:10176000CF010E946A121093CC030093CB03109216
:10177000D2031092D1038091CF039091D003909324
:10178000D4038093D303D093CE03C093CD03DF91D2
:10179000CF911F910F91FF90EF90DF9008950F93DD
:1017A0001F93CF93DF93CDB7DEB729970FB6F89489
:1017B000DEBF0FBECDBF8091770390917803892B58
:1017C00009F4A2C00E94220500917D0310917E03BE
:1017D00020917F0330918003DC01CB01801B910BB2
:1017E000A20BB30B8C329140A105B10558F3F894CC
:1017F00080917303909174039A838983E0917703B6
:10180000F0917803DF0111968081898790916F03B1
:10181000E0918103F091820380918303992309F47D
:101820002EC09081982B98879081809589238F83F3
:101830008F818C8388E08B8358856F8149853B81BC
:101840002C8189819A81508347FD252F3A952083E9
:10185000262F39F0441F00C000006083000000C044
:10186000F2CF38E04D9160830000019761F7F0936B
:101870008203E093810349873B832C8338C09081A6
:10188000982B98879081809589238F838F818E8371
:1018900088E08D8358856F8149853D812E818981BE
:1018A0009A81508347FD252F00C000C0208300C0CF
:1018B00000C000C000C000C060830000262F3A9521
:1018C00041F0441F000000C000C000C000C000C0C4
:1018D000E8CF38E04D9100C0608300C0019709F760
:1018E000F0938203E093810349873D832E839A839B
:1018F000898378940E94220560937D0370937E0310
:1019000080937F039093800329960FB6F894DEBFEF
:101910000FBECDBFDF91CF911F910F9108958F9290
:101920009F92AF92BF92CF92DF92EF92FF9220915F
:101930007103309172038217930708F052C04B0174
:10194000AA24BB24E82DC52ED62EE72EFF24FC2D7D
:10195000342F20917603222361F0829E40011124CE
:10196000E92DC29E60011124FD2D429FD00111245A
:101970003B2FF0907C03E0907903A0917703B09126
:101980007803FE1008C0AC01440F551F840F951F4B
:101990008A0F9B1F14C0880F991F880F991F8A0FE9
:1019A0009B1F472F552766277727DC01AF0DB11DF9
:1019B000222321F0429FA0011124452F4C93209116
:1019C0007903DC01A20FB11DEC9320917A03DC01B5
:1019D000A20FB11DFC9320917B03FC01E20FF11DCE
:1019E0003083FF90EF90DF90CF90BF90AF909F90AB
:1019F0008F90089561E08DE00E94830961E08DE0A1
:101A00000E9453096AEF70E080E090E00E94BF09F5
:101A100060E08DE00E9453096AEF70E080E090E0A2
:101A20000E94BF09EBCF80917703909178030097D4
:101A300011F00E946A128091750387FD03C060E077
:101A40000E94830984E391E09093AB038093AA03FF
:101A500080911F02909120028A5A934071F4E09184
:101A6000BD03F091BE0390818091BF0380958923CF
:101A700080831092200210921F028091CB039091DC
:101A8000CC030C946A12789484B5826084BD84B5CA
:101A9000816084BD85B5826085BD85B5816085BD69
:101AA00080916E00816080936E0010928100809121
:101AB00081008260809381008091810081608093A9
:101AC0008100809180008160809380008091B100CE
:101AD00084608093B1008091B00081608093B000F9
:101AE00080917A00846080937A0080917A0082608D
:101AF00080937A0080917A00816080937A0080914F
:101B00007A00806880937A001092C100E09183028D
:101B1000F091840282E08083E0917F02F091800264
:101B20001082E0918102F09182028FEC808310920A
:101B30008B02E0918702F091880286E08083E09139
:101B40008502F0918602808180618083E091850228
:101B5000F0918602808188608083E0918502F09117
:101B60008602808180688083E0918502F091860200
:101B700080818F7D80831092C5031092C4031092E0
:101B8000C3031092C2031092C1031092C0038DE9E7
:101B900091E09093C7038093C6039091B60396316A
:101BA00008F057C02DEB30E03093C1032093C00301
:101BB0002BE931E03093C3032093C2032CE231E0E0
:101BC0003093C5032093C40320916800983050F0EF
:101BD00031E09E3008F430E081E001C0880F3A9592
:101BE000EAF701C084E0822B80936800983038F0D7
:101BF0009E3040F0963148F020E030E008C02DE6FD
:101C000030E005C02BE630E002C02CE630E0309337
:101C1000BE032093BD03983030F481E001C0880FEB
:101C20009A95EAF70EC0292F30E09E3018F428501C
:101C3000310902C02E50310981E001C0880F2A9578
:101C4000EAF78093BF038091C6039091C703019781
:101C5000F1F78091C4039091C503892B49F1E0917C
:101C60001F02F091200283E0EA3AF80709F1309769
:101C700039F0A389B4899C918589809589238C93B7
:101C80008091C8038E7F8093C80310921E02109229
:101C90001D028AEA93E09093200280931F02E09154
:101CA000BD03F091BE0390818091BF03892B808397
:101CB0008091750387FD08C061E00E94830960E0A0
:101CC000809175030E945309C1E0C0937003C093D3
:101CD0009C038AEA93E09093850380938403809128
:101CE0008A0390918B03A0918C03B0918D0388544B
:101CF000944FAF4FBF4F80938A0390938B03A09371
:101D00008C03B0938D0360E070E08CE00E94EC0ADD
:101D1000C093A9030E94F909811106C060E070E038
:101D2000CB010E94BF09F6CF80918A0390918B036B
:101D3000A0918C03B0918D03885B9B40A109B109F0
:101D400080938A0390938B03A0938C03B0938D03AD
:101D500068EC70E080E090E00E94BF091092A80358
:101D60008091A403843069F088E691E00E943C0BE6
:101D700087E491E00E943C0B8AE291E00E943C0BD8
:101D8000FFCF64E170E086E00E94EC0A61E08AE047
:101D90000E94830961E087E00E94830961E088E096
:101DA0000E94830960E086E00E94830960E089E088
:101DB0000E94830960E08BE00E94830960E08DE06F
:101DC0000E94830960E082E00E94830961E08AE06A
:101DD0000E94530961E087E00E94530960E088E0B7
:101DE0000E94530984E694E090936B0380936A0306
:101DF00081E090E0A0E0B0E080935E0390935F0309
:101E0000A0936003B0936103809162039091630398
:101E1000A0916403B09165030196A11DB11D80934B
:101E2000660390936703A0936803B093690384E803
:101E300096E0909358038093570385E090E0A0E0EC
:101E4000B0E080934B0390934C03A0934D03B09369
:101E50004E0380914F0390915003A0915103B09194
:101E600052030596A11DB11D809353039093540313
:101E7000A0935503B093560386ED91E090933203FF
:101E8000809331038AE090E0A0E0B0E080932503E6
:101E900090932603A0932703B093280380912903EE
:101EA00090912A03A0912B03B0912C030A96A11DB7
:101EB000B11D80932D0390932E03A0932F03B09315
:101EC00030038AEB92E090931F0380931E0384E615
:101ED00090E0A0E0B0E08093120390931303A093EE
:101EE0001403B09315038091160390911703A091EA
:101EF0001803B09119038C599F4FAF4FBF4F809378
:101F00001A0390931B03A0931C03B0931D038BE152
:101F100093E0909345038093440384E190E0A0E034
:101F2000B0E08093380390933903A0933A03B093C1
:101F30003B0380913C0390913D03A0913E03B091FF
:101F40003F034496A11DB11D80934003909341032C
:101F5000A0934203B093430389E1ECE3F2E0DF0195
:101F6000982F1D929A95E9F7E3E2F2E0DF011D92C6
:101F70008A95E9F71092550282E090E09093220250
:101F80008093210287E291E00E943C0B68EE73E0AF
:101F900080E090E00E94BF098CE593E00E94780702
:101FA000882321F08CE593E00E94530589E493E0B7
:101FB0000E947807882321F089E493E00E9453056A
:101FC00086E393E00E947807882321F086E393E07C
:101FD0000E94530583E293E00E947807882321F052
:101FE00083E293E00E94530580E193E00E9478072A
:101FF000882321F080E193E00E9453050E94880825
:10200000CBCFCF92DF92EF92FF9210927602109296
:10201000750238EEC32E33E0D32EE12CF12CC092A2
:102020007702D0927802E0927902F0927A0282E20C
:1020300091E0909374028093730285EC90E090930A
:10204000800280937F0284EC90E0909382028093E0
:10205000810280EC90E0909384028093830281EC73
:1020600090E0909386028093850282EC90E09093BA
:1020700088028093870286EC90E090938A02809396
:10208000890210928C0210928D0210928E02109290
:102090008F021092CE031092CD031092D0031092B3
:1020A000CF031092D2031092D1031092D403109256
:1020B000D3031092CA031092C90382E390E00E94F6
:1020C000D5119093CC038093CB03892B11F40E94FC
:1020D000FA0C82E090E09093CE038093CD031092AF
:1020E000AD031092AC03C092AE03D092AF03E09266
:1020F000B003F092B10384E391E09093AB0380933B
:10210000AA031092C1031092C0031092C30310924D
:10211000C2031092C5031092C4031092C703109219
:10212000C6036091C8036E7F6D7F6093C803669598
:10213000617081E0682784E00E94530961E084E0D7
:102140000E948309E5EAF1E0E491E093BA03E1E952
:10215000F1E0E491F0E0EE0FFF1FE758FE4F8591AC
:1021600094919093BC038093BB0360E083E00E9452
:1021700083098091C80381FD04C061E083E00E946F
:10218000530983E08093B603E4EAF1E0E491E0933D
:10219000B703E0E9F1E0E491F0E0EE0FFF1FED5747
:1021A000FE4F859194919093B9038093B80384EF87
:1021B00091E0A0E0B0E080938A0390938B03A0931A
:1021C0008C03B0938D038AE0E4E1F1E0A8E9B3E089
:1021D00001900D928A95E1F71092A20382E080931C
:1021E000A3031092A8031092A903109270031092F7
:1021F000760310927D0310927E0310927F0310925B
:10220000800380937C038093790310927A0381E0AA
:1022100080937B0380936F0380E690E09093740338
:10222000809373030E94D511909378038093770372
:10223000009761F020E6FC0111922A95E9F780E20F
:1022400090E0909372038093710308C0109274031E
:1022500010927303109272031092710385E08093C1
:10226000750380917003882341F061E085E00E944E
:10227000830960E085E00E945309E2E9F1E0E4911E
:10228000F0E0EE0FFF1FE758FE4F85919491909379
:10229000820380938103E6EAF1E0E491E093830313
:1022A00020E030E0A90160E070E08CE593E00E945E
:1022B0003A0620E030E0A90160E070E089E493E0B4
:1022C0000E943A0620E030E0A90160E070E086E379
:1022D00093E00E943A0620E030E0A90160E070E05F
:1022E00083E293E00E943A0620E030E0A90160E03A
:1022F00070E080E193E0FF90EF90DF90CF900C943E
:102300003A06FC0188279927E89421912032E9F3C5
:10231000293010F02E30C8F32B3241F02D3239F431
:10232000689404C00E949F11820F911D2191205337
:102330002A30C0F31EF4909581959F4F08957AE05E
:10234000979F902D879F802D910D1124089597FBC5
:10235000072E16F4009407D077FD09D00E94C11112
:1023600007FC05D03EF4909581959F4F0895709598
:1023700061957F4F0895EE0FFF1F0590F491E02DBA
:102380000994AA1BBB1B51E107C0AA1FBB1FA617BC
:10239000B70710F0A61BB70B881F991F5A95A9F70E
:1023A00080959095BC01CD010895CF93DF93823045
:1023B000910510F482E090E0E091D703F091D8030A
:1023C00020E030E0C0E0D0E0309711F14081518151
:1023D00048175907C0F04817590761F48281938163
:1023E000209719F09B838A832BC09093D803809306
:1023F000D70326C02115310519F04217530718F4E9
:102400009A01BE01DF01EF010280F381E02DDCCFF4
:102410002115310509F1281B390B2430310590F4C1
:1024200012968D919C9113976115710521F0FB0116
:102430009383828304C09093D8038093D703FD01D4
:10244000329644C0FD01E20FF31F81939193225015
:1024500031092D933C933AC02091D5033091D60396
:10246000232B41F420910601309107013093D603CC
:102470002093D503209104013091050121153105E8
:1024800041F42DB73EB74091080150910901241B3A
:10249000350BE091D503F091D603E217F307A0F4D2
:1024A0002E1B3F0B2817390778F0AC014E5F5F4FAA
:1024B0002417350748F04E0F5F1F5093D603409303
:1024C000D5038193919302C0E0E0F0E0CF01DF916A
:1024D000CF9108950F931F93CF93DF93009709F443
:1024E0008CC0FC013297138212820091D7031091A5
:1024F000D8030115110581F420813181820F931FCA
:102500002091D5033091D6032817390779F5F09338
:10251000D603E093D50371C0D80140E050E0AE1778
:10252000BF0750F412962D913C911397AD012115E0
:10253000310509F1D901F3CF9D01DA0133832283FB
:1025400060817181860F971F8217930769F4EC01F0
:1025500028813981260F371F2E5F3F4F318320831B
:102560008A819B8193838283452B29F4F093D8033E
:10257000E093D70342C01396FC93EE931297ED01BC
:10258000499159919E01240F351FE217F30771F409
:1025900080819181840F951F029611969C938E9352
:1025A0008281938113969C938E931297E0E0F0E0E2
:1025B000D80112968D919C911397009719F0F8010C
:1025C0008C01F6CF8D919C9198012E5F3F4F820F29
:1025D000931F2091D5033091D6032817390769F44A
:1025E000309729F41092D8031092D70302C01382B7
:1025F00012821093D6030093D503DF91CF911F91E0
:102600000F91089581E090E0F8940C94071310E086
:10261000CCEDD0E004C0FE010E94BB112196CD3D5F
:08262000D107C9F7F894FFCFC0
:10262800100001000000D903800000000000C40170
:10263800B10153057EFF06000100000000EF000015
:1026480000001F088C07B7076608E807C607DA07FF
:102658000000000020018C07AE011F0174018C01ED
:1026680007010D0A00312E302E30005155455545D1
:102678003A206572726F722064756520746F2075D8
:102688006E646573697261626C652073697A65202E
:10269800666F722071756575652073697A652E009D
:1026A80051554555453A20696E7375666669636983
:1026B800656E74206D656D6F727920746F20696E18
:1026C800697469616C697A652074656D706F72618F
:0A26D80072792071756575652E009A
:00000001FF
